{
  "contractName": "Voting",
  "abi": [
    {
      "anonymous": false,
      "inputs": [
        {
          "indexed": true,
          "internalType": "address",
          "name": "previousOwner",
          "type": "address"
        },
        {
          "indexed": true,
          "internalType": "address",
          "name": "newOwner",
          "type": "address"
        }
      ],
      "name": "OwnershipTransferred",
      "type": "event"
    },
    {
      "anonymous": false,
      "inputs": [
        {
          "indexed": false,
          "internalType": "uint256",
          "name": "proposalId",
          "type": "uint256"
        }
      ],
      "name": "ProposalRegistered",
      "type": "event"
    },
    {
      "anonymous": false,
      "inputs": [
        {
          "indexed": false,
          "internalType": "address",
          "name": "voter",
          "type": "address"
        },
        {
          "indexed": false,
          "internalType": "uint256",
          "name": "proposalId",
          "type": "uint256"
        }
      ],
      "name": "Voted",
      "type": "event"
    },
    {
      "anonymous": false,
      "inputs": [
        {
          "indexed": false,
          "internalType": "address",
          "name": "voterAddress",
          "type": "address"
        }
      ],
      "name": "VoterRegistered",
      "type": "event"
    },
    {
      "anonymous": false,
      "inputs": [
        {
          "indexed": false,
          "internalType": "enum Voting.WorkflowStatus",
          "name": "previousStatus",
          "type": "uint8"
        },
        {
          "indexed": false,
          "internalType": "enum Voting.WorkflowStatus",
          "name": "newStatus",
          "type": "uint8"
        }
      ],
      "name": "WorkflowStatusChange",
      "type": "event"
    },
    {
      "inputs": [],
      "name": "owner",
      "outputs": [
        {
          "internalType": "address",
          "name": "",
          "type": "address"
        }
      ],
      "stateMutability": "view",
      "type": "function"
    },
    {
      "inputs": [],
      "name": "renounceOwnership",
      "outputs": [],
      "stateMutability": "nonpayable",
      "type": "function"
    },
    {
      "inputs": [
        {
          "internalType": "address",
          "name": "newOwner",
          "type": "address"
        }
      ],
      "name": "transferOwnership",
      "outputs": [],
      "stateMutability": "nonpayable",
      "type": "function"
    },
    {
      "inputs": [],
      "name": "winningProposalID",
      "outputs": [
        {
          "internalType": "uint256",
          "name": "",
          "type": "uint256"
        }
      ],
      "stateMutability": "view",
      "type": "function"
    },
    {
      "inputs": [],
      "name": "workflowStatus",
      "outputs": [
        {
          "internalType": "enum Voting.WorkflowStatus",
          "name": "",
          "type": "uint8"
        }
      ],
      "stateMutability": "view",
      "type": "function"
    },
    {
      "inputs": [
        {
          "internalType": "address",
          "name": "_addr",
          "type": "address"
        }
      ],
      "name": "getVoter",
      "outputs": [
        {
          "components": [
            {
              "internalType": "bool",
              "name": "isRegistered",
              "type": "bool"
            },
            {
              "internalType": "bool",
              "name": "hasVoted",
              "type": "bool"
            },
            {
              "internalType": "uint256",
              "name": "votedProposalId",
              "type": "uint256"
            }
          ],
          "internalType": "struct Voting.Voter",
          "name": "",
          "type": "tuple"
        }
      ],
      "stateMutability": "view",
      "type": "function"
    },
    {
      "inputs": [
        {
          "internalType": "uint256",
          "name": "_id",
          "type": "uint256"
        }
      ],
      "name": "getOneProposal",
      "outputs": [
        {
          "components": [
            {
              "internalType": "string",
              "name": "description",
              "type": "string"
            },
            {
              "internalType": "uint256",
              "name": "voteCount",
              "type": "uint256"
            }
          ],
          "internalType": "struct Voting.Proposal",
          "name": "",
          "type": "tuple"
        }
      ],
      "stateMutability": "view",
      "type": "function"
    },
    {
      "inputs": [],
      "name": "getWinner",
      "outputs": [
        {
          "components": [
            {
              "internalType": "string",
              "name": "description",
              "type": "string"
            },
            {
              "internalType": "uint256",
              "name": "voteCount",
              "type": "uint256"
            }
          ],
          "internalType": "struct Voting.Proposal",
          "name": "",
          "type": "tuple"
        }
      ],
      "stateMutability": "view",
      "type": "function"
    },
    {
      "inputs": [
        {
          "internalType": "address",
          "name": "_addr",
          "type": "address"
        }
      ],
      "name": "addVoter",
      "outputs": [],
      "stateMutability": "nonpayable",
      "type": "function"
    },
    {
      "inputs": [
        {
          "internalType": "string",
          "name": "_desc",
          "type": "string"
        }
      ],
      "name": "addProposal",
      "outputs": [],
      "stateMutability": "nonpayable",
      "type": "function"
    },
    {
      "inputs": [
        {
          "internalType": "uint256",
          "name": "_id",
          "type": "uint256"
        }
      ],
      "name": "setVote",
      "outputs": [],
      "stateMutability": "nonpayable",
      "type": "function"
    },
    {
      "inputs": [],
      "name": "startProposalsRegistering",
      "outputs": [],
      "stateMutability": "nonpayable",
      "type": "function"
    },
    {
      "inputs": [],
      "name": "endProposalsRegistering",
      "outputs": [],
      "stateMutability": "nonpayable",
      "type": "function"
    },
    {
      "inputs": [],
      "name": "startVotingSession",
      "outputs": [],
      "stateMutability": "nonpayable",
      "type": "function"
    },
    {
      "inputs": [],
      "name": "endVotingSession",
      "outputs": [],
      "stateMutability": "nonpayable",
      "type": "function"
    },
    {
      "inputs": [],
      "name": "tallyVotes",
      "outputs": [],
      "stateMutability": "nonpayable",
      "type": "function"
    }
  ],
  "bytecode": "0x60806040523480156200001157600080fd5b5062000032620000266200003860201b60201c565b6200004060201b60201c565b62000104565b600033905090565b60008060009054906101000a900473ffffffffffffffffffffffffffffffffffffffff169050816000806101000a81548173ffffffffffffffffffffffffffffffffffffffff021916908373ffffffffffffffffffffffffffffffffffffffff1602179055508173ffffffffffffffffffffffffffffffffffffffff168173ffffffffffffffffffffffffffffffffffffffff167f8be0079c531659141344cd1fd0a4f28419497f9722a3daafe3b4186f6b6457e060405160405180910390a35050565b61260680620001146000396000f3fe608060405234801561001057600080fd5b50600436106101005760003560e01c8063a7bfab1611610097578063d4f50f9811610066578063d4f50f9814610217578063ee74c67814610247578063f2fde38b14610251578063f4ab9adf1461026d57610100565b8063a7bfab16146101db578063bdc01431146101e5578063c7038a4e14610203578063c88af42f1461020d57610100565b80638da5cb5b116100d35780638da5cb5b146101515780638e7ea5b21461016f578063a1edffa21461018d578063a2788cce146101ab57610100565b8063230796ae146101055780632fdae3c514610121578063378a21781461013d578063715018a614610147575b600080fd5b61011f600480360381019061011a91906114f5565b610289565b005b61013b60048036038101906101369190611668565b610584565b005b6101456107c0565b005b61014f61092d565b005b610159610941565b60405161016691906116f2565b60405180910390f35b61017761096a565b60405161018491906117e1565b60405180910390f35b610195610ab7565b6040516101a2919061187a565b60405180910390f35b6101c560048036038101906101c091906114f5565b610aca565b6040516101d291906117e1565b60405180910390f35b6101e3610c31565b005b6101ed610d17565b6040516101fa91906118a4565b60405180910390f35b61020b610d1d565b005b610215610e03565b005b610231600480360381019061022c91906118eb565b610ee8565b60405161023e9190611975565b60405180910390f35b61024f611010565b005b61026b600480360381019061026691906118eb565b6110f6565b005b610287600480360381019061028291906118eb565b611179565b005b600460003373ffffffffffffffffffffffffffffffffffffffff1673ffffffffffffffffffffffffffffffffffffffff16815260200190815260200160002060000160009054906101000a900460ff16610318576040517f08c379a000000000000000000000000000000000000000000000000000000000815260040161030f906119ed565b60405180910390fd5b6003600581111561032c5761032b611803565b5b600260009054906101000a900460ff16600581111561034e5761034d611803565b5b1461038e576040517f08c379a000000000000000000000000000000000000000000000000000000000815260040161038590611a7f565b60405180910390fd5b60011515600460003373ffffffffffffffffffffffffffffffffffffffff1673ffffffffffffffffffffffffffffffffffffffff16815260200190815260200160002060000160019054906101000a900460ff16151503610424576040517f08c379a000000000000000000000000000000000000000000000000000000000815260040161041b90611aeb565b60405180910390fd5b600380549050811061046b576040517f08c379a000000000000000000000000000000000000000000000000000000000815260040161046290611b57565b60405180910390fd5b80600460003373ffffffffffffffffffffffffffffffffffffffff1673ffffffffffffffffffffffffffffffffffffffff168152602001908152602001600020600101819055506001600460003373ffffffffffffffffffffffffffffffffffffffff1673ffffffffffffffffffffffffffffffffffffffff16815260200190815260200160002060000160016101000a81548160ff0219169083151502179055506003818154811061052157610520611b77565b5b9060005260206000209060020201600101600081548092919061054390611bd5565b91905055507f4d99b957a2bc29a30ebd96a7be8e68fe50a3c701db28a91436490b7d53870ca43382604051610579929190611c1d565b60405180910390a150565b600460003373ffffffffffffffffffffffffffffffffffffffff1673ffffffffffffffffffffffffffffffffffffffff16815260200190815260200160002060000160009054906101000a900460ff16610613576040517f08c379a000000000000000000000000000000000000000000000000000000000815260040161060a906119ed565b60405180910390fd5b6001600581111561062757610626611803565b5b600260009054906101000a900460ff16600581111561064957610648611803565b5b14610689576040517f08c379a000000000000000000000000000000000000000000000000000000000815260040161068090611c92565b60405180910390fd5b60405160200161069890611cd8565b60405160208183030381529060405280519060200120816040516020016106bf9190611d31565b6040516020818303038152906040528051906020012003610715576040517f08c379a000000000000000000000000000000000000000000000000000000000815260040161070c90611dc5565b60405180910390fd5b61071d61146c565b818160000181905250600381908060018154018082558091505060019003906000526020600020906002020160009091909190915060008201518160000190816107679190611ff1565b506020820151816001015550507f92e393e9b54e2f801d3ea4beb0c5e71a21cc34a5d34b77d0fb8a3aa1650dc18f60016003805490506107a791906120c3565b6040516107b491906118a4565b60405180910390a15050565b6107c8611322565b600460058111156107dc576107db611803565b5b600260009054906101000a900460ff1660058111156107fe576107fd611803565b5b1461083e576040517f08c379a000000000000000000000000000000000000000000000000000000000815260040161083590612169565b60405180910390fd5b600080600090505b6003805490508110156108bc576003828154811061086757610866611b77565b5b9060005260206000209060020201600101546003828154811061088d5761088c611b77565b5b90600052602060002090600202016001015411156108a9578091505b80806108b490611bd5565b915050610846565b50806001819055506005600260006101000a81548160ff021916908360058111156108ea576108e9611803565b5b02179055507f0a97a4ee45751e2abf3e4fc8946939630b11b371ea8ae39ccdc3056e98f5cc3f60046005604051610922929190612189565b60405180910390a150565b610935611322565b61093f60006113a0565b565b60008060009054906101000a900473ffffffffffffffffffffffffffffffffffffffff16905090565b61097261146c565b60058081111561098557610984611803565b5b600260009054906101000a900460ff1660058111156109a7576109a6611803565b5b146109e7576040517f08c379a00000000000000000000000000000000000000000000000000000000081526004016109de906121fe565b60405180910390fd5b6003600154815481106109fd576109fc611b77565b5b9060005260206000209060020201604051806040016040529081600082018054610a2690611e14565b80601f0160208091040260200160405190810160405280929190818152602001828054610a5290611e14565b8015610a9f5780601f10610a7457610100808354040283529160200191610a9f565b820191906000526020600020905b815481529060010190602001808311610a8257829003601f168201915b50505050508152602001600182015481525050905090565b600260009054906101000a900460ff1681565b610ad261146c565b600460003373ffffffffffffffffffffffffffffffffffffffff1673ffffffffffffffffffffffffffffffffffffffff16815260200190815260200160002060000160009054906101000a900460ff16610b61576040517f08c379a0000000000000000000000000000000000000000000000000000000008152600401610b58906119ed565b60405180910390fd5b60038281548110610b7557610b74611b77565b5b9060005260206000209060020201604051806040016040529081600082018054610b9e90611e14565b80601f0160208091040260200160405190810160405280929190818152602001828054610bca90611e14565b8015610c175780601f10610bec57610100808354040283529160200191610c17565b820191906000526020600020905b815481529060010190602001808311610bfa57829003601f168201915b505050505081526020016001820154815250509050919050565b610c39611322565b60036005811115610c4d57610c4c611803565b5b600260009054906101000a900460ff166005811115610c6f57610c6e611803565b5b14610caf576040517f08c379a0000000000000000000000000000000000000000000000000000000008152600401610ca690611a7f565b60405180910390fd5b6004600260006101000a81548160ff02191690836005811115610cd557610cd4611803565b5b02179055507f0a97a4ee45751e2abf3e4fc8946939630b11b371ea8ae39ccdc3056e98f5cc3f60036004604051610d0d929190612189565b60405180910390a1565b60015481565b610d25611322565b60006005811115610d3957610d38611803565b5b600260009054906101000a900460ff166005811115610d5b57610d5a611803565b5b14610d9b576040517f08c379a0000000000000000000000000000000000000000000000000000000008152600401610d9290612290565b60405180910390fd5b6001600260006101000a81548160ff02191690836005811115610dc157610dc0611803565b5b02179055507f0a97a4ee45751e2abf3e4fc8946939630b11b371ea8ae39ccdc3056e98f5cc3f60006001604051610df9929190612189565b60405180910390a1565b610e0b611322565b60016005811115610e1f57610e1e611803565b5b600260009054906101000a900460ff166005811115610e4157610e40611803565b5b14610e81576040517f08c379a0000000000000000000000000000000000000000000000000000000008152600401610e7890612322565b60405180910390fd5b60028060006101000a81548160ff02191690836005811115610ea657610ea5611803565b5b02179055507f0a97a4ee45751e2abf3e4fc8946939630b11b371ea8ae39ccdc3056e98f5cc3f60016002604051610ede929190612189565b60405180910390a1565b610ef0611486565b600460003373ffffffffffffffffffffffffffffffffffffffff1673ffffffffffffffffffffffffffffffffffffffff16815260200190815260200160002060000160009054906101000a900460ff16610f7f576040517f08c379a0000000000000000000000000000000000000000000000000000000008152600401610f76906119ed565b60405180910390fd5b600460008373ffffffffffffffffffffffffffffffffffffffff1673ffffffffffffffffffffffffffffffffffffffff1681526020019081526020016000206040518060600160405290816000820160009054906101000a900460ff161515151581526020016000820160019054906101000a900460ff161515151581526020016001820154815250509050919050565b611018611322565b6002600581111561102c5761102b611803565b5b600260009054906101000a900460ff16600581111561104e5761104d611803565b5b1461108e576040517f08c379a0000000000000000000000000000000000000000000000000000000008152600401611085906123b4565b60405180910390fd5b6003600260006101000a81548160ff021916908360058111156110b4576110b3611803565b5b02179055507f0a97a4ee45751e2abf3e4fc8946939630b11b371ea8ae39ccdc3056e98f5cc3f600260036040516110ec929190612189565b60405180910390a1565b6110fe611322565b600073ffffffffffffffffffffffffffffffffffffffff168173ffffffffffffffffffffffffffffffffffffffff160361116d576040517f08c379a000000000000000000000000000000000000000000000000000000000815260040161116490612446565b60405180910390fd5b611176816113a0565b50565b611181611322565b6000600581111561119557611194611803565b5b600260009054906101000a900460ff1660058111156111b7576111b6611803565b5b146111f7576040517f08c379a00000000000000000000000000000000000000000000000000000000081526004016111ee906124d8565b60405180910390fd5b60011515600460008373ffffffffffffffffffffffffffffffffffffffff1673ffffffffffffffffffffffffffffffffffffffff16815260200190815260200160002060000160009054906101000a900460ff1615150361128d576040517f08c379a000000000000000000000000000000000000000000000000000000000815260040161128490612544565b60405180910390fd5b6001600460008373ffffffffffffffffffffffffffffffffffffffff1673ffffffffffffffffffffffffffffffffffffffff16815260200190815260200160002060000160006101000a81548160ff0219169083151502179055507fb6be2187d059cc2a55fe29e0e503b566e1e0f8c8780096e185429350acffd3dd8160405161131791906116f2565b60405180910390a150565b61132a611464565b73ffffffffffffffffffffffffffffffffffffffff16611348610941565b73ffffffffffffffffffffffffffffffffffffffff161461139e576040517f08c379a0000000000000000000000000000000000000000000000000000000008152600401611395906125b0565b60405180910390fd5b565b60008060009054906101000a900473ffffffffffffffffffffffffffffffffffffffff169050816000806101000a81548173ffffffffffffffffffffffffffffffffffffffff021916908373ffffffffffffffffffffffffffffffffffffffff1602179055508173ffffffffffffffffffffffffffffffffffffffff168173ffffffffffffffffffffffffffffffffffffffff167f8be0079c531659141344cd1fd0a4f28419497f9722a3daafe3b4186f6b6457e060405160405180910390a35050565b600033905090565b604051806040016040528060608152602001600081525090565b6040518060600160405280600015158152602001600015158152602001600081525090565b6000604051905090565b600080fd5b600080fd5b6000819050919050565b6114d2816114bf565b81146114dd57600080fd5b50565b6000813590506114ef816114c9565b92915050565b60006020828403121561150b5761150a6114b5565b5b6000611519848285016114e0565b91505092915050565b600080fd5b600080fd5b6000601f19601f8301169050919050565b7f4e487b7100000000000000000000000000000000000000000000000000000000600052604160045260246000fd5b6115758261152c565b810181811067ffffffffffffffff821117156115945761159361153d565b5b80604052505050565b60006115a76114ab565b90506115b3828261156c565b919050565b600067ffffffffffffffff8211156115d3576115d261153d565b5b6115dc8261152c565b9050602081019050919050565b82818337600083830152505050565b600061160b611606846115b8565b61159d565b90508281526020810184848401111561162757611626611527565b5b6116328482856115e9565b509392505050565b600082601f83011261164f5761164e611522565b5b813561165f8482602086016115f8565b91505092915050565b60006020828403121561167e5761167d6114b5565b5b600082013567ffffffffffffffff81111561169c5761169b6114ba565b5b6116a88482850161163a565b91505092915050565b600073ffffffffffffffffffffffffffffffffffffffff82169050919050565b60006116dc826116b1565b9050919050565b6116ec816116d1565b82525050565b600060208201905061170760008301846116e3565b92915050565b600081519050919050565b600082825260208201905092915050565b60005b8381101561174757808201518184015260208101905061172c565b83811115611756576000848401525b50505050565b60006117678261170d565b6117718185611718565b9350611781818560208601611729565b61178a8161152c565b840191505092915050565b61179e816114bf565b82525050565b600060408301600083015184820360008601526117c1828261175c565b91505060208301516117d66020860182611795565b508091505092915050565b600060208201905081810360008301526117fb81846117a4565b905092915050565b7f4e487b7100000000000000000000000000000000000000000000000000000000600052602160045260246000fd5b6006811061184357611842611803565b5b50565b600081905061185482611832565b919050565b600061186482611846565b9050919050565b61187481611859565b82525050565b600060208201905061188f600083018461186b565b92915050565b61189e816114bf565b82525050565b60006020820190506118b96000830184611895565b92915050565b6118c8816116d1565b81146118d357600080fd5b50565b6000813590506118e5816118bf565b92915050565b600060208284031215611901576119006114b5565b5b600061190f848285016118d6565b91505092915050565b60008115159050919050565b61192d81611918565b82525050565b6060820160008201516119496000850182611924565b50602082015161195c6020850182611924565b50604082015161196f6040850182611795565b50505050565b600060608201905061198a6000830184611933565b92915050565b600082825260208201905092915050565b7f596f75277265206e6f74206120766f7465720000000000000000000000000000600082015250565b60006119d7601283611990565b91506119e2826119a1565b602082019050919050565b60006020820190508181036000830152611a06816119ca565b9050919050565b7f566f74696e672073657373696f6e20686176656e74207374617274656420796560008201527f7400000000000000000000000000000000000000000000000000000000000000602082015250565b6000611a69602183611990565b9150611a7482611a0d565b604082019050919050565b60006020820190508181036000830152611a9881611a5c565b9050919050565b7f596f75206861766520616c726561647920766f74656400000000000000000000600082015250565b6000611ad5601683611990565b9150611ae082611a9f565b602082019050919050565b60006020820190508181036000830152611b0481611ac8565b9050919050565b7f50726f706f73616c206e6f7420666f756e640000000000000000000000000000600082015250565b6000611b41601283611990565b9150611b4c82611b0b565b602082019050919050565b60006020820190508181036000830152611b7081611b34565b9050919050565b7f4e487b7100000000000000000000000000000000000000000000000000000000600052603260045260246000fd5b7f4e487b7100000000000000000000000000000000000000000000000000000000600052601160045260246000fd5b6000611be0826114bf565b91507fffffffffffffffffffffffffffffffffffffffffffffffffffffffffffffffff8203611c1257611c11611ba6565b5b600182019050919050565b6000604082019050611c3260008301856116e3565b611c3f6020830184611895565b9392505050565b7f50726f706f73616c7320617265206e6f7420616c6c6f77656420796574000000600082015250565b6000611c7c601d83611990565b9150611c8782611c46565b602082019050919050565b60006020820190508181036000830152611cab81611c6f565b9050919050565b50565b6000611cc2600083611990565b9150611ccd82611cb2565b600082019050919050565b60006020820190508181036000830152611cf181611cb5565b9050919050565b6000611d038261170d565b611d0d8185611990565b9350611d1d818560208601611729565b611d268161152c565b840191505092915050565b60006020820190508181036000830152611d4b8184611cf8565b905092915050565b7f566f7573206e6520706f7576657a20706173206e65207269656e2070726f706f60008201527f7365720000000000000000000000000000000000000000000000000000000000602082015250565b6000611daf602383611990565b9150611dba82611d53565b604082019050919050565b60006020820190508181036000830152611dde81611da2565b9050919050565b7f4e487b7100000000000000000000000000000000000000000000000000000000600052602260045260246000fd5b60006002820490506001821680611e2c57607f821691505b602082108103611e3f57611e3e611de5565b5b50919050565b60008190508160005260206000209050919050565b60006020601f8301049050919050565b600082821b905092915050565b600060088302611ea77fffffffffffffffffffffffffffffffffffffffffffffffffffffffffffffffff82611e6a565b611eb18683611e6a565b95508019841693508086168417925050509392505050565b6000819050919050565b6000611eee611ee9611ee4846114bf565b611ec9565b6114bf565b9050919050565b6000819050919050565b611f0883611ed3565b611f1c611f1482611ef5565b848454611e77565b825550505050565b600090565b611f31611f24565b611f3c818484611eff565b505050565b5b81811015611f6057611f55600082611f29565b600181019050611f42565b5050565b601f821115611fa557611f7681611e45565b611f7f84611e5a565b81016020851015611f8e578190505b611fa2611f9a85611e5a565b830182611f41565b50505b505050565b600082821c905092915050565b6000611fc860001984600802611faa565b1980831691505092915050565b6000611fe18383611fb7565b9150826002028217905092915050565b611ffa8261170d565b67ffffffffffffffff8111156120135761201261153d565b5b61201d8254611e14565b612028828285611f64565b600060209050601f83116001811461205b5760008415612049578287015190505b6120538582611fd5565b8655506120bb565b601f19841661206986611e45565b60005b828110156120915784890151825560018201915060208501945060208101905061206c565b868310156120ae57848901516120aa601f891682611fb7565b8355505b6001600288020188555050505b505050505050565b60006120ce826114bf565b91506120d9836114bf565b9250828210156120ec576120eb611ba6565b5b828203905092915050565b7f43757272656e7420737461747573206973206e6f7420766f74696e672073657360008201527f73696f6e20656e64656400000000000000000000000000000000000000000000602082015250565b6000612153602a83611990565b915061215e826120f7565b604082019050919050565b6000602082019050818103600083015261218281612146565b9050919050565b600060408201905061219e600083018561186b565b6121ab602083018461186b565b9392505050565b7f566f74657320617265206e6f742074616c6c6965642079657400000000000000600082015250565b60006121e8601983611990565b91506121f3826121b2565b602082019050919050565b60006020820190508181036000830152612217816121db565b9050919050565b7f5265676973746572696e672070726f706f73616c732063616e7420626520737460008201527f6172746564206e6f770000000000000000000000000000000000000000000000602082015250565b600061227a602983611990565b91506122858261221e565b604082019050919050565b600060208201905081810360008301526122a98161226d565b9050919050565b7f5265676973746572696e672070726f706f73616c7320686176656e742073746160008201527f7274656420796574000000000000000000000000000000000000000000000000602082015250565b600061230c602883611990565b9150612317826122b0565b604082019050919050565b6000602082019050818103600083015261233b816122ff565b9050919050565b7f5265676973746572696e672070726f706f73616c73207068617365206973206e60008201527f6f742066696e6973686564000000000000000000000000000000000000000000602082015250565b600061239e602b83611990565b91506123a982612342565b604082019050919050565b600060208201905081810360008301526123cd81612391565b9050919050565b7f4f776e61626c653a206e6577206f776e657220697320746865207a65726f206160008201527f6464726573730000000000000000000000000000000000000000000000000000602082015250565b6000612430602683611990565b915061243b826123d4565b604082019050919050565b6000602082019050818103600083015261245f81612423565b9050919050565b7f566f7465727320726567697374726174696f6e206973206e6f74206f70656e2060008201527f7965740000000000000000000000000000000000000000000000000000000000602082015250565b60006124c2602383611990565b91506124cd82612466565b604082019050919050565b600060208201905081810360008301526124f1816124b5565b9050919050565b7f416c726561647920726567697374657265640000000000000000000000000000600082015250565b600061252e601283611990565b9150612539826124f8565b602082019050919050565b6000602082019050818103600083015261255d81612521565b9050919050565b7f4f776e61626c653a2063616c6c6572206973206e6f7420746865206f776e6572600082015250565b600061259a602083611990565b91506125a582612564565b602082019050919050565b600060208201905081810360008301526125c98161258d565b905091905056fea264697066735822122079627119d0bfcc0643b5b5b1d05341a7b69ba9af26a3852896a50d4ff62b86cb64736f6c634300080f0033",
  "immutableReferences": {},
  "source": "// SPDX-License-Identifier: MIT\n\npragma solidity 0.8.15;\nimport \"../node_modules/@openzeppelin/contracts/access/Ownable.sol\";\n\n\ncontract Voting is Ownable {\n\n    uint public winningProposalID;\n    \n    struct Voter {\n        bool isRegistered;\n        bool hasVoted;\n        uint votedProposalId;\n    }\n\n    struct Proposal {\n        string description;\n        uint voteCount;\n    }\n\n    enum  WorkflowStatus {\n        RegisteringVoters,\n        ProposalsRegistrationStarted,\n        ProposalsRegistrationEnded,\n        VotingSessionStarted,\n        VotingSessionEnded,\n        VotesTallied\n    }\n\n    WorkflowStatus public workflowStatus;\n    Proposal[] proposalsArray;\n    mapping (address => Voter) voters;\n\n\n    event VoterRegistered(address voterAddress); \n    event WorkflowStatusChange(WorkflowStatus previousStatus, WorkflowStatus newStatus);\n    event ProposalRegistered(uint proposalId);\n    event Voted (address voter, uint proposalId);\n\n    modifier onlyVoters() {\n        require(voters[msg.sender].isRegistered, \"You're not a voter\");\n        _;\n    }\n    \n    // on peut faire un modifier pour les tats\n\n    // ::::::::::::: GETTERS ::::::::::::: //\n\n    function getVoter(address _addr) external onlyVoters view returns (Voter memory) {\n        return voters[_addr];\n    }\n    \n    function getOneProposal(uint _id) external onlyVoters view returns (Proposal memory) {\n        return proposalsArray[_id];\n    }\n\n     function getWinner() external view returns (Proposal memory) {\n        require(workflowStatus == WorkflowStatus.VotesTallied, 'Votes are not tallied yet');\n        return proposalsArray[winningProposalID];\n    }\n\n \n    // ::::::::::::: REGISTRATION ::::::::::::: // \n\n    function addVoter(address _addr) external onlyOwner {\n        require(workflowStatus == WorkflowStatus.RegisteringVoters, 'Voters registration is not open yet');\n        require(voters[_addr].isRegistered != true, 'Already registered');\n    \n        voters[_addr].isRegistered = true;\n        emit VoterRegistered(_addr);\n    }\n \n\n    // ::::::::::::: PROPOSAL ::::::::::::: // \n\n    function addProposal(string memory _desc) external onlyVoters {\n        require(workflowStatus == WorkflowStatus.ProposalsRegistrationStarted, 'Proposals are not allowed yet');\n        require(keccak256(abi.encode(_desc)) != keccak256(abi.encode(\"\")), 'Vous ne pouvez pas ne rien proposer'); // facultatif\n        // voir que desc est different des autres\n\n        Proposal memory proposal;\n        proposal.description = _desc;\n        proposalsArray.push(proposal);\n        emit ProposalRegistered(proposalsArray.length-1);\n    }\n\n    // ::::::::::::: VOTE ::::::::::::: //\n\n    function setVote( uint _id) external onlyVoters {\n        require(workflowStatus == WorkflowStatus.VotingSessionStarted, 'Voting session havent started yet');\n        require(voters[msg.sender].hasVoted != true, 'You have already voted');\n        require(_id < proposalsArray.length, 'Proposal not found'); // pas oblig, et pas besoin du >0 car uint\n\n        voters[msg.sender].votedProposalId = _id;\n        voters[msg.sender].hasVoted = true;\n        proposalsArray[_id].voteCount++;\n\n        emit Voted(msg.sender, _id);\n    }\n\n    // ::::::::::::: STATE ::::::::::::: //\n\n\n    function startProposalsRegistering() external onlyOwner {\n        require(workflowStatus == WorkflowStatus.RegisteringVoters, 'Registering proposals cant be started now');\n        workflowStatus = WorkflowStatus.ProposalsRegistrationStarted;\n        emit WorkflowStatusChange(WorkflowStatus.RegisteringVoters, WorkflowStatus.ProposalsRegistrationStarted);\n    }\n\n    function endProposalsRegistering() external onlyOwner {\n        require(workflowStatus == WorkflowStatus.ProposalsRegistrationStarted, 'Registering proposals havent started yet');\n        workflowStatus = WorkflowStatus.ProposalsRegistrationEnded;\n        emit WorkflowStatusChange(WorkflowStatus.ProposalsRegistrationStarted, WorkflowStatus.ProposalsRegistrationEnded);\n    }\n\n    function startVotingSession() external onlyOwner {\n        require(workflowStatus == WorkflowStatus.ProposalsRegistrationEnded, 'Registering proposals phase is not finished');\n        workflowStatus = WorkflowStatus.VotingSessionStarted;\n        emit WorkflowStatusChange(WorkflowStatus.ProposalsRegistrationEnded, WorkflowStatus.VotingSessionStarted);\n    }\n\n    function endVotingSession() external onlyOwner {\n        require(workflowStatus == WorkflowStatus.VotingSessionStarted, 'Voting session havent started yet');\n        workflowStatus = WorkflowStatus.VotingSessionEnded;\n        emit WorkflowStatusChange(WorkflowStatus.VotingSessionStarted, WorkflowStatus.VotingSessionEnded);\n    }\n\n\n   function tallyVotes() external onlyOwner {\n       require(workflowStatus == WorkflowStatus.VotingSessionEnded, \"Current status is not voting session ended\");\n       uint _winningProposalId;\n      for (uint256 p = 0; p < proposalsArray.length; p++) {\n           if (proposalsArray[p].voteCount > proposalsArray[_winningProposalId].voteCount) {\n               _winningProposalId = p;\n          }\n       }\n       winningProposalID = _winningProposalId;\n       \n       workflowStatus = WorkflowStatus.VotesTallied;\n       emit WorkflowStatusChange(WorkflowStatus.VotingSessionEnded, WorkflowStatus.VotesTallied);\n    }\n}",
  "sourcePath": "/root/Alyradapps/truffle/contracts/Voting.sol",
  "compiler": {
    "name": "solc",
    "version": "0.8.15+commit.e14f2714.Emscripten.clang"
  },
  "schemaVersion": "3.4.7",
  "updatedAt": "2022-07-17T13:15:48.520Z",
  "devdoc": {
    "kind": "dev",
    "methods": {
      "owner()": {
        "details": "Returns the address of the current owner."
      },
      "renounceOwnership()": {
        "details": "Leaves the contract without owner. It will not be possible to call `onlyOwner` functions anymore. Can only be called by the current owner. NOTE: Renouncing ownership will leave the contract without an owner, thereby removing any functionality that is only available to the owner."
      },
      "transferOwnership(address)": {
        "details": "Transfers ownership of the contract to a new account (`newOwner`). Can only be called by the current owner."
      }
    },
    "version": 1
  },
  "userdoc": {
    "kind": "user",
    "methods": {},
    "version": 1
  }
}